{
  "contractName": "Event",
  "abi": [
    {
      "anonymous": false,
      "inputs": [
        {
          "indexed": false,
          "internalType": "uint256",
          "name": "eventId",
          "type": "uint256"
        },
        {
          "indexed": false,
          "internalType": "string",
          "name": "name",
          "type": "string"
        },
        {
          "indexed": false,
          "internalType": "uint256",
          "name": "date",
          "type": "uint256"
        },
        {
          "indexed": false,
          "internalType": "uint256",
          "name": "ticketPrice",
          "type": "uint256"
        },
        {
          "indexed": false,
          "internalType": "uint256",
          "name": "totalTickets",
          "type": "uint256"
        },
        {
          "indexed": false,
          "internalType": "address",
          "name": "organizer",
          "type": "address"
        }
      ],
      "name": "EventAdded",
      "type": "event"
    },
    {
      "inputs": [
        {
          "internalType": "uint256",
          "name": "",
          "type": "uint256"
        }
      ],
      "name": "events",
      "outputs": [
        {
          "internalType": "uint256",
          "name": "eventId",
          "type": "uint256"
        },
        {
          "internalType": "string",
          "name": "name",
          "type": "string"
        },
        {
          "internalType": "uint256",
          "name": "date",
          "type": "uint256"
        },
        {
          "internalType": "uint256",
          "name": "ticketPrice",
          "type": "uint256"
        },
        {
          "internalType": "uint256",
          "name": "totalTickets",
          "type": "uint256"
        },
        {
          "internalType": "uint256",
          "name": "ticketsSold",
          "type": "uint256"
        },
        {
          "internalType": "address payable",
          "name": "organizer",
          "type": "address"
        }
      ],
      "stateMutability": "view",
      "type": "function",
      "constant": true
    },
    {
      "inputs": [
        {
          "internalType": "string",
          "name": "_name",
          "type": "string"
        },
        {
          "internalType": "uint256",
          "name": "_date",
          "type": "uint256"
        },
        {
          "internalType": "uint256",
          "name": "_ticketPrice",
          "type": "uint256"
        },
        {
          "internalType": "uint256",
          "name": "_totalTickets",
          "type": "uint256"
        }
      ],
      "name": "addEvent",
      "outputs": [],
      "stateMutability": "nonpayable",
      "type": "function"
    }
  ],
  "bytecode": "0x6080604052600060015534801561001557600080fd5b50610a93806100256000396000f3fe608060405234801561001057600080fd5b50600436106100365760003560e01c80630b7914301461003b57806328c08ed014610071575b600080fd5b61005560048036038101906100509190610547565b61008d565b60405161006897969594939291906107aa565b60405180910390f35b61008b600480360381019061008691906104cc565b610177565b005b60006020528060005260406000206000915090508060000154908060010180546100b69061092d565b80601f01602080910402602001604051908101604052809291908181526020018280546100e29061092d565b801561012f5780601f106101045761010080835404028352916020019161012f565b820191906000526020600020905b81548152906001019060200180831161011257829003601f168201915b5050505050908060020154908060030154908060040154908060050154908060060160009054906101000a900473ffffffffffffffffffffffffffffffffffffffff16905087565b4283116101b9576040517f08c379a00000000000000000000000000000000000000000000000000000000081526004016101b090610722565b60405180910390fd5b600082116101fc576040517f08c379a00000000000000000000000000000000000000000000000000000000081526004016101f390610702565b60405180910390fd5b6000811161023f576040517f08c379a0000000000000000000000000000000000000000000000000000000008152600401610236906106e2565b60405180910390fd5b600061024961038e565b905060006040518060e00160405280838152602001878152602001868152602001858152602001848152602001600081526020013373ffffffffffffffffffffffffffffffffffffffff168152509050806000808481526020019081526020016000206000820151816000015560208201518160010190805190602001906102d29291906103ac565b5060408201518160020155606082015181600301556080820151816004015560a0820151816005015560c08201518160060160006101000a81548173ffffffffffffffffffffffffffffffffffffffff021916908373ffffffffffffffffffffffffffffffffffffffff1602179055509050507f28555ee3990f424b6920309801ed9f7b1b40a6fc69c1033d18cdffe8d6d653b082878787873360405161037e96959493929190610742565b60405180910390a1505050505050565b6000600160008154809291906103a39061095f565b91905055905090565b8280546103b89061092d565b90600052602060002090601f0160209004810192826103da5760008555610421565b82601f106103f357805160ff1916838001178555610421565b82800160010185558215610421579182015b82811115610420578251825591602001919060010190610405565b5b50905061042e9190610432565b5090565b5b8082111561044b576000816000905550600101610433565b5090565b600061046261045d84610851565b610820565b90508281526020810184848401111561047a57600080fd5b6104858482856108eb565b509392505050565b600082601f83011261049e57600080fd5b81356104ae84826020860161044f565b91505092915050565b6000813590506104c681610a46565b92915050565b600080600080608085870312156104e257600080fd5b600085013567ffffffffffffffff8111156104fc57600080fd5b6105088782880161048d565b9450506020610519878288016104b7565b935050604061052a878288016104b7565b925050606061053b878288016104b7565b91505092959194509250565b60006020828403121561055957600080fd5b6000610567848285016104b7565b91505092915050565b610579816108af565b82525050565b6105888161089d565b82525050565b600061059982610881565b6105a3818561088c565b93506105b38185602086016108fa565b6105bc81610a35565b840191505092915050565b60006105d460278361088c565b91507f546f74616c207469636b657473206d757374206265206772656174657220746860008301527f616e207a65726f000000000000000000000000000000000000000000000000006020830152604082019050919050565b600061063a60268361088c565b91507f5469636b6574207072696365206d75737420626520677265617465722074686160008301527f6e207a65726f00000000000000000000000000000000000000000000000000006020830152604082019050919050565b60006106a060208361088c565b91507f4576656e742064617465206d75737420626520696e20746865206675747572656000830152602082019050919050565b6106dc816108e1565b82525050565b600060208201905081810360008301526106fb816105c7565b9050919050565b6000602082019050818103600083015261071b8161062d565b9050919050565b6000602082019050818103600083015261073b81610693565b9050919050565b600060c08201905061075760008301896106d3565b8181036020830152610769818861058e565b905061077860408301876106d3565b61078560608301866106d3565b61079260808301856106d3565b61079f60a083018461057f565b979650505050505050565b600060e0820190506107bf600083018a6106d3565b81810360208301526107d1818961058e565b90506107e060408301886106d3565b6107ed60608301876106d3565b6107fa60808301866106d3565b61080760a08301856106d3565b61081460c0830184610570565b98975050505050505050565b6000604051905081810181811067ffffffffffffffff8211171561084757610846610a06565b5b8060405250919050565b600067ffffffffffffffff82111561086c5761086b610a06565b5b601f19601f8301169050602081019050919050565b600081519050919050565b600082825260208201905092915050565b60006108a8826108c1565b9050919050565b60006108ba826108c1565b9050919050565b600073ffffffffffffffffffffffffffffffffffffffff82169050919050565b6000819050919050565b82818337600083830152505050565b60005b838110156109185780820151818401526020810190506108fd565b83811115610927576000848401525b50505050565b6000600282049050600182168061094557607f821691505b60208210811415610959576109586109d7565b5b50919050565b600061096a826108e1565b91507fffffffffffffffffffffffffffffffffffffffffffffffffffffffffffffffff82141561099d5761099c6109a8565b5b600182019050919050565b7f4e487b7100000000000000000000000000000000000000000000000000000000600052601160045260246000fd5b7f4e487b7100000000000000000000000000000000000000000000000000000000600052602260045260246000fd5b7f4e487b7100000000000000000000000000000000000000000000000000000000600052604160045260246000fd5b6000601f19601f8301169050919050565b610a4f816108e1565b8114610a5a57600080fd5b5056fea2646970667358221220b1d81a5840adcafeabadf00d2c29a378e5c3a38716109380673089794c32a87964736f6c63430008000033",
  "immutableReferences": {},
  "source": "// SPDX-License-Identifier: MIT\npragma solidity ^0.8.0;\n\ncontract Event {\n    struct Event {\n        uint eventId;\n        string name;\n        uint date;\n        uint ticketPrice;\n        uint totalTickets;\n        uint ticketsSold;\n        address payable organizer;\n    }\n    \n    mapping(uint => Event) public events;\n    uint nextEventId = 0; // initialize the event counter to 0\n\n    event EventAdded(uint eventId, string name, uint date, uint ticketPrice, uint totalTickets, address organizer);\n\n    function addEvent(string memory _name, uint _date, uint _ticketPrice, uint _totalTickets) public {\n        require(_date > block.timestamp, \"Event date must be in the future\");\n        require(_ticketPrice > 0, \"Ticket price must be greater than zero\");\n        require(_totalTickets > 0, \"Total tickets must be greater than zero\");\n        \n        uint newEventId = generateEventId();\n        \n        Event memory newEvent = Event({\n            eventId: newEventId,\n            name: _name,\n            date: _date,\n            ticketPrice: _ticketPrice,\n            totalTickets: _totalTickets,\n            ticketsSold: 0,\n            organizer: payable(msg.sender)\n        });\n        \n        events[newEventId] = newEvent;\n        emit EventAdded(newEventId, _name, _date, _ticketPrice, _totalTickets, msg.sender);\n    }\n    \n    function generateEventId() internal returns (uint) {\n        return nextEventId++;\n    }\n}\n",
  "sourcePath": "/home/joshua/projects/Hackathon/Event_Booking_System/contracts/Event.sol",
  "compiler": {
    "name": "solc",
    "version": "0.8.0+commit.c7dfd78e.Emscripten.clang"
  },
  "schemaVersion": "3.4.16",
  "updatedAt": "2024-08-30T15:19:30.310Z",
  "networkType": "ethereum",
  "devdoc": {
    "kind": "dev",
    "methods": {},
    "version": 1
  },
  "userdoc": {
    "kind": "user",
    "methods": {},
    "version": 1
  }
}